{
  "contractName": "GameBase",
  "abi": [
    {
      "constant": false,
      "inputs": [
        {
          "name": "newOwner",
          "type": "address"
        }
      ],
      "name": "setOwner",
      "outputs": [],
      "payable": false,
      "stateMutability": "nonpayable",
      "type": "function"
    },
    {
      "constant": false,
      "inputs": [],
      "name": "unpause",
      "outputs": [],
      "payable": false,
      "stateMutability": "nonpayable",
      "type": "function"
    },
    {
      "constant": true,
      "inputs": [],
      "name": "operator",
      "outputs": [
        {
          "name": "",
          "type": "address"
        }
      ],
      "payable": false,
      "stateMutability": "view",
      "type": "function"
    },
    {
      "constant": true,
      "inputs": [],
      "name": "paused",
      "outputs": [
        {
          "name": "",
          "type": "bool"
        }
      ],
      "payable": false,
      "stateMutability": "view",
      "type": "function"
    },
    {
      "constant": false,
      "inputs": [],
      "name": "createGame",
      "outputs": [
        {
          "name": "",
          "type": "uint256"
        }
      ],
      "payable": true,
      "stateMutability": "payable",
      "type": "function"
    },
    {
      "constant": true,
      "inputs": [],
      "name": "newGameId",
      "outputs": [
        {
          "name": "",
          "type": "uint256"
        }
      ],
      "payable": false,
      "stateMutability": "view",
      "type": "function"
    },
    {
      "constant": false,
      "inputs": [
        {
          "name": "gameId",
          "type": "uint256"
        },
        {
          "name": "password",
          "type": "bytes32"
        }
      ],
      "name": "setPassword",
      "outputs": [],
      "payable": false,
      "stateMutability": "nonpayable",
      "type": "function"
    },
    {
      "constant": false,
      "inputs": [],
      "name": "pause",
      "outputs": [],
      "payable": false,
      "stateMutability": "nonpayable",
      "type": "function"
    },
    {
      "constant": true,
      "inputs": [],
      "name": "owner",
      "outputs": [
        {
          "name": "",
          "type": "address"
        }
      ],
      "payable": false,
      "stateMutability": "view",
      "type": "function"
    },
    {
      "constant": false,
      "inputs": [
        {
          "name": "newOperator",
          "type": "address"
        }
      ],
      "name": "setOperator",
      "outputs": [],
      "payable": false,
      "stateMutability": "nonpayable",
      "type": "function"
    },
    {
      "constant": false,
      "inputs": [
        {
          "name": "gameId",
          "type": "uint256"
        },
        {
          "name": "result",
          "type": "bytes"
        }
      ],
      "name": "setResult",
      "outputs": [],
      "payable": false,
      "stateMutability": "nonpayable",
      "type": "function"
    },
    {
      "anonymous": false,
      "inputs": [
        {
          "indexed": false,
          "name": "gameId",
          "type": "uint256"
        },
        {
          "indexed": false,
          "name": "player0",
          "type": "address"
        }
      ],
      "name": "NewGame",
      "type": "event"
    },
    {
      "anonymous": false,
      "inputs": [
        {
          "indexed": false,
          "name": "gameId",
          "type": "uint256"
        }
      ],
      "name": "ResultSet",
      "type": "event"
    },
    {
      "anonymous": false,
      "inputs": [
        {
          "indexed": false,
          "name": "gameId",
          "type": "uint256"
        }
      ],
      "name": "PasswordSet",
      "type": "event"
    },
    {
      "anonymous": false,
      "inputs": [
        {
          "indexed": false,
          "name": "newOperator",
          "type": "address"
        }
      ],
      "name": "NewOperator",
      "type": "event"
    },
    {
      "anonymous": false,
      "inputs": [
        {
          "indexed": false,
          "name": "newOwner",
          "type": "address"
        }
      ],
      "name": "NewOwner",
      "type": "event"
    }
  ],
  "bytecode": "0x606060405260008060146101000a81548160ff0219169083151502179055506000600355336000806101000a81548173ffffffffffffffffffffffffffffffffffffffff021916908373ffffffffffffffffffffffffffffffffffffffff160217905550610e16806100726000396000f3006060604052600436106100af576000357c0100000000000000000000000000000000000000000000000000000000900463ffffffff16806313af4035146100b45780633f4ba83a146100ed578063570ca735146101025780635c975abb146101575780637255d7291461018457806375dfd547146101a25780637b6b3f18146101cb5780638456cb59146101fb5780638da5cb5b14610210578063b3ab15fb14610265578063ca9e40241461029e575b600080fd5b34156100bf57600080fd5b6100eb600480803573ffffffffffffffffffffffffffffffffffffffff16906020019091905050610304565b005b34156100f857600080fd5b61010061043c565b005b341561010d57600080fd5b6101156104c9565b604051808273ffffffffffffffffffffffffffffffffffffffff1673ffffffffffffffffffffffffffffffffffffffff16815260200191505060405180910390f35b341561016257600080fd5b61016a6104ef565b604051808215151515815260200191505060405180910390f35b61018c610502565b6040518082815260200191505060405180910390f35b34156101ad57600080fd5b6101b561083e565b6040518082815260200191505060405180910390f35b34156101d657600080fd5b6101f9600480803590602001909190803560001916906020019091905050610844565b005b341561020657600080fd5b61020e61093a565b005b341561021b57600080fd5b6102236109c9565b604051808273ffffffffffffffffffffffffffffffffffffffff1673ffffffffffffffffffffffffffffffffffffffff16815260200191505060405180910390f35b341561027057600080fd5b61029c600480803573ffffffffffffffffffffffffffffffffffffffff169060200190919050506109ee565b005b34156102a957600080fd5b610302600480803590602001909190803590602001908201803590602001908080601f01602080910402602001604051908101604052809392919081815260200183838082843782019150505050505091905050610ac4565b005b6000809054906101000a900473ffffffffffffffffffffffffffffffffffffffff1673ffffffffffffffffffffffffffffffffffffffff163373ffffffffffffffffffffffffffffffffffffffff16141561043957600073ffffffffffffffffffffffffffffffffffffffff168173ffffffffffffffffffffffffffffffffffffffff161415151561039557600080fd5b806000806101000a81548173ffffffffffffffffffffffffffffffffffffffff021916908373ffffffffffffffffffffffffffffffffffffffff1602179055507f3edd90e7770f06fafde38004653b33870066c33bfc923ff6102acd601f85dfbc81604051808273ffffffffffffffffffffffffffffffffffffffff1673ffffffffffffffffffffffffffffffffffffffff16815260200191505060405180910390a15b50565b6000809054906101000a900473ffffffffffffffffffffffffffffffffffffffff1673ffffffffffffffffffffffffffffffffffffffff163373ffffffffffffffffffffffffffffffffffffffff1614156104c757600060149054906101000a900460ff1615156104ac57600080fd5b60008060146101000a81548160ff0219169083151502179055505b565b600160009054906101000a900473ffffffffffffffffffffffffffffffffffffffff1681565b600060149054906101000a900460ff1681565b600061050c610bb3565b610514610bf1565b60003411151561052357600080fd5b600073ffffffffffffffffffffffffffffffffffffffff163373ffffffffffffffffffffffffffffffffffffffff161415151561055f57600080fd5b60a0604051908101604052803373ffffffffffffffffffffffffffffffffffffffff1673ffffffffffffffffffffffffffffffffffffffff168152602001600073ffffffffffffffffffffffffffffffffffffffff1673ffffffffffffffffffffffffffffffffffffffff168152602001600073ffffffffffffffffffffffffffffffffffffffff1673ffffffffffffffffffffffffffffffffffffffff168152602001600073ffffffffffffffffffffffffffffffffffffffff1673ffffffffffffffffffffffffffffffffffffffff168152602001600073ffffffffffffffffffffffffffffffffffffffff1673ffffffffffffffffffffffffffffffffffffffff16815250915060006040518059106106785750595b9080825280601f01601f1916602001820160405250905060a0604051908101604052804267ffffffffffffffff16815260200134815260200183815260200182815260200160006001026000191681525060026000600354815260200190815260200160002060008201518160000160006101000a81548167ffffffffffffffff021916908367ffffffffffffffff1602179055506020820151816001015560408201518160020190600561072e929190610c05565b50606082015181600701908051906020019061074b929190610c82565b50608082015181600801906000191690559050503460026000600354815260200190815260200160002060090160003373ffffffffffffffffffffffffffffffffffffffff1673ffffffffffffffffffffffffffffffffffffffff168152602001908152602001600020819055507fb4ab36f4d2fee8698466065c4ee831b4748994cdd8de1c10a834a1d9b945233760035433604051808381526020018273ffffffffffffffffffffffffffffffffffffffff1673ffffffffffffffffffffffffffffffffffffffff1681526020019250505060405180910390a160036000815480929190600101919050559250505090565b60035481565b6000600160009054906101000a900473ffffffffffffffffffffffffffffffffffffffff1673ffffffffffffffffffffffffffffffffffffffff163373ffffffffffffffffffffffffffffffffffffffff161415156108a257600080fd5b6002600084815260200190815260200160002090506000816007018054600181600116156101000203166002900490501115156108de57600080fd5b6000602060ff161115156108f157600080fd5b818160080181600019169055507f5c594553afdbdbf01351654a637619e7f6b7045cef6b416cbaa2e02f7ec6e87d836040518082815260200191505060405180910390a1505050565b6000809054906101000a900473ffffffffffffffffffffffffffffffffffffffff1673ffffffffffffffffffffffffffffffffffffffff163373ffffffffffffffffffffffffffffffffffffffff1614156109c757600060149054906101000a900460ff161515156109ab57600080fd5b6001600060146101000a81548160ff0219169083151502179055505b565b6000809054906101000a900473ffffffffffffffffffffffffffffffffffffffff1681565b6000809054906101000a900473ffffffffffffffffffffffffffffffffffffffff1673ffffffffffffffffffffffffffffffffffffffff163373ffffffffffffffffffffffffffffffffffffffff161415610ac157600073ffffffffffffffffffffffffffffffffffffffff168173ffffffffffffffffffffffffffffffffffffffff1614151515610a7f57600080fd5b80600160006101000a81548173ffffffffffffffffffffffffffffffffffffffff021916908373ffffffffffffffffffffffffffffffffffffffff1602179055505b50565b6000600160009054906101000a900473ffffffffffffffffffffffffffffffffffffffff1673ffffffffffffffffffffffffffffffffffffffff163373ffffffffffffffffffffffffffffffffffffffff16141515610b2257600080fd5b600260008481526020019081526020016000209050600081600701805460018160011615610100020316600290049050141515610b5e57600080fd5b81816007019080519060200190610b76929190610d02565b507fbb43759ae2eb507a9963b2125196f8cabe6fcf352f52d8aa59279569feced200836040518082815260200191505060405180910390a1505050565b60a0604051908101604052806005905b600073ffffffffffffffffffffffffffffffffffffffff16815260200190600190039081610bc35790505090565b602060405190810160405280600081525090565b8260058101928215610c71579160200282015b82811115610c705782518260006101000a81548173ffffffffffffffffffffffffffffffffffffffff021916908373ffffffffffffffffffffffffffffffffffffffff16021790555091602001919060010190610c18565b5b509050610c7e9190610d82565b5090565b828054600181600116156101000203166002900490600052602060002090601f016020900481019282601f10610cc357805160ff1916838001178555610cf1565b82800160010185558215610cf1579182015b82811115610cf0578251825591602001919060010190610cd5565b5b509050610cfe9190610dc5565b5090565b828054600181600116156101000203166002900490600052602060002090601f016020900481019282601f10610d4357805160ff1916838001178555610d71565b82800160010185558215610d71579182015b82811115610d70578251825591602001919060010190610d55565b5b509050610d7e9190610dc5565b5090565b610dc291905b80821115610dbe57600081816101000a81549073ffffffffffffffffffffffffffffffffffffffff021916905550600101610d88565b5090565b90565b610de791905b80821115610de3576000816000905550600101610dcb565b5090565b905600a165627a7a72305820b4a1a5a096df0cd47160e9a9f94c0f878724163d9e0ae6e33029005bc22a2bcd0029",
  "source": "pragma solidity ^0.4.0;\n\nimport \"./Operable.sol\";\n\ncontract GameBase is Operable {\n  /*** Events ***/\n  event NewGame     (uint256 gameId, address player0);\n  event ResultSet   (uint256 gameId);\n  event PasswordSet (uint256 gameId);\n\n  /*** Data Types ***/\n  struct Game {\n    /// The timestamp from the block when this game began\n    uint64      startTime;\n    uint256      pledge;\n    address[5]  players;\n    bytes       result;\n    bytes32     password;\n    mapping (address => uint256) pledges;\n  }\n\n  mapping (uint256 => Game) games;\n  uint256 public            newGameId = 0;\n\n  function createGame () public payable returns (uint256) {\n    require(msg.value > 0);\n    require(msg.sender != address(0));\n    address[5] memory players = [msg.sender, address(0), address(0), address(0), address(0)];\n    bytes memory result = new bytes(0);\n\n    games[newGameId] = Game({\n      startTime: uint64(now),\n      pledge:    msg.value,\n      players: players,\n      result: result,\n      password: 0\n    });\n\n    games[newGameId].pledges[msg.sender] = msg.value;\n\n    NewGame(newGameId, msg.sender);\n    \n    return newGameId++;\n  }\n\n  function setResult (uint256 gameId, bytes result) public justOperator {\n    Game storage game = games[gameId];\n    require(game.result.length == 0);\n    game.result = result;\n    \n    ResultSet(gameId);\n  }\n\n  function setPassword (uint256 gameId, bytes32 password) public justOperator {\n    Game storage game = games[gameId];\n    require(game.result.length > 0);\n    require(game.password.length > 0);\n\n    game.password = password;\n\n    PasswordSet(gameId);\n  }\n}\n\n\n",
  "sourcePath": "/Users/mishochu/Source/cryptoshuffle/contracts/GameBase.sol",
  "compiler": {
    "name": "solc",
    "version": "0.4.18+commit.9cf6e910.Emscripten.clang"
  },
  "schemaVersion": "1.0.1",
  "updatedAt": "2018-01-10T06:34:45.243Z"
}