{
  "contractName": "Ownable",
  "abi": [
    {
      "constant": false,
      "inputs": [
        {
          "name": "newOwner",
          "type": "address"
        }
      ],
      "name": "setOwner",
      "outputs": [],
      "payable": false,
      "stateMutability": "nonpayable",
      "type": "function"
    },
    {
      "constant": false,
      "inputs": [],
      "name": "unpause",
      "outputs": [],
      "payable": false,
      "stateMutability": "nonpayable",
      "type": "function"
    },
    {
      "constant": true,
      "inputs": [],
      "name": "paused",
      "outputs": [
        {
          "name": "",
          "type": "bool"
        }
      ],
      "payable": false,
      "stateMutability": "view",
      "type": "function"
    },
    {
      "constant": false,
      "inputs": [],
      "name": "pause",
      "outputs": [],
      "payable": false,
      "stateMutability": "nonpayable",
      "type": "function"
    },
    {
      "constant": true,
      "inputs": [],
      "name": "owner",
      "outputs": [
        {
          "name": "",
          "type": "address"
        }
      ],
      "payable": false,
      "stateMutability": "view",
      "type": "function"
    },
    {
      "inputs": [],
      "payable": false,
      "stateMutability": "nonpayable",
      "type": "constructor"
    },
    {
      "anonymous": false,
      "inputs": [
        {
          "indexed": false,
          "name": "newOwner",
          "type": "address"
        }
      ],
      "name": "NewOwner",
      "type": "event"
    }
  ],
  "bytecode": "0x606060405260008060146101000a81548160ff021916908315150217905550341561002957600080fd5b336000806101000a81548173ffffffffffffffffffffffffffffffffffffffff021916908373ffffffffffffffffffffffffffffffffffffffff16021790555061040f806100786000396000f30060606040526004361061006d576000357c0100000000000000000000000000000000000000000000000000000000900463ffffffff16806313af4035146100725780633f4ba83a146100ab5780635c975abb146100c05780638456cb59146100ed5780638da5cb5b14610102575b600080fd5b341561007d57600080fd5b6100a9600480803573ffffffffffffffffffffffffffffffffffffffff16906020019091905050610157565b005b34156100b657600080fd5b6100be61028f565b005b34156100cb57600080fd5b6100d361031c565b604051808215151515815260200191505060405180910390f35b34156100f857600080fd5b61010061032f565b005b341561010d57600080fd5b6101156103be565b604051808273ffffffffffffffffffffffffffffffffffffffff1673ffffffffffffffffffffffffffffffffffffffff16815260200191505060405180910390f35b6000809054906101000a900473ffffffffffffffffffffffffffffffffffffffff1673ffffffffffffffffffffffffffffffffffffffff163373ffffffffffffffffffffffffffffffffffffffff16141561028c57600073ffffffffffffffffffffffffffffffffffffffff168173ffffffffffffffffffffffffffffffffffffffff16141515156101e857600080fd5b806000806101000a81548173ffffffffffffffffffffffffffffffffffffffff021916908373ffffffffffffffffffffffffffffffffffffffff1602179055507f3edd90e7770f06fafde38004653b33870066c33bfc923ff6102acd601f85dfbc81604051808273ffffffffffffffffffffffffffffffffffffffff1673ffffffffffffffffffffffffffffffffffffffff16815260200191505060405180910390a15b50565b6000809054906101000a900473ffffffffffffffffffffffffffffffffffffffff1673ffffffffffffffffffffffffffffffffffffffff163373ffffffffffffffffffffffffffffffffffffffff16141561031a57600060149054906101000a900460ff1615156102ff57600080fd5b60008060146101000a81548160ff0219169083151502179055505b565b600060149054906101000a900460ff1681565b6000809054906101000a900473ffffffffffffffffffffffffffffffffffffffff1673ffffffffffffffffffffffffffffffffffffffff163373ffffffffffffffffffffffffffffffffffffffff1614156103bc57600060149054906101000a900460ff161515156103a057600080fd5b6001600060146101000a81548160ff0219169083151502179055505b565b6000809054906101000a900473ffffffffffffffffffffffffffffffffffffffff16815600a165627a7a7230582075c0a1151b6016eaf03ed56092bcbeb12598dcd19ad4d82123617f44d17e2b6c0029",
  "source": "pragma solidity ^0.4.0;\n\ncontract Ownable {\n  address public owner;\n  // @dev Keeps track of whether the contract is paused. When that is true, most actions are blocked\n  bool public paused = false;\n  event NewOwner(address newOwner);\n\n  modifier restricted() {\n    if (msg.sender == owner) _;\n  }\n\n  function Ownable() public {\n    owner = msg.sender;\n  }\n\n  function setOwner(address newOwner) external restricted {\n    require(newOwner != address(0));\n    owner = newOwner;\n    NewOwner(newOwner);\n  }\n\n  modifier whenNotPaused() {\n    require(!paused);\n    _;\n  }\n\n  modifier whenPaused {\n    require(paused);\n    _;\n  }\n\n  function pause() external restricted whenNotPaused {\n    paused = true;\n  }\n\n  function unpause() external restricted whenPaused {\n    paused = false;\n  }\n}\n",
  "sourcePath": "/Users/mishochu/Source/cryptoshuffle/contracts/Ownable.sol",
  "compiler": {
    "name": "solc",
    "version": "0.4.18+commit.9cf6e910.Emscripten.clang"
  },
  "schemaVersion": "1.0.1",
  "updatedAt": "2018-01-10T06:34:38.992Z"
}